:020000040800F2
:10000000D0060020BD010008C5010008C701000896
:10001000C9010008CB010008CD0100080000000064
:10002000000000000000000000000000CF010008F8
:10003000D101000800000000D3010008D50100082C
:10004000D7010008D7010008D7010008D701000830
:10005000D7010008D7010008D7010008D701000820
:10006000D7010008D7010008D7010008D701000810
:10007000D7010008D7010008D7010008D701000800
:10008000D7010008D7010008D701000800000000D0
:10009000000000000000000000000000D701000880
:1000A000D7010008D7010008D7010008D7010008D0
:1000B000D7010008D7010008D7010008D7010008C0
:1000C000D7010008D7010008D7010008D7010008B0
:1000D000D7010008D7010008D7010008D7010008A0
:1000E000D7010008D7010008D70100080000000070
:1000F0000000000000000000000000000000000000
:1001000000000000000000000000000000000000EF
:100110000000000000000000D7010008D70100081F
:1001200000F002F800F03AF80AA090E8000C8244CF
:100130008344AAF10107DA4501D100F02FF8AFF2AC
:10014000090EBAE80F0013F0010F18BFFB1A43F0B5
:1001500001031847CC040000EC040000103A24BF4F
:1001600078C878C1FAD8520724BF30C830C144BF1C
:1001700004680C607047000000230024002500265E
:10018000103A28BF78C1FBD8520728BF30C148BFFA
:100190000B6070471FB51FBD10B510BD00F031F8E2
:1001A0001146FFF7F7FF00F0D1F900F04FF803B464
:1001B000FFF7F2FF03BC00F057F800000948804742
:1001C00009480047FEE7FEE7FEE7FEE7FEE7FEE739
:1001D000FEE7FEE7FEE7FEE704480549054A064B51
:1001E000704700006D04000821010008D0000020C5
:1001F000D0060020D0020020D002002070477047B7
:100200007047754600F02CF8AE4605006946534627
:1002100020F00700854618B020B5FFF7DDFFBDE8E8
:1002200020404FF000064FF000074FF000084FF05D
:10023000000B21F00701AC46ACE8C009ACE8C009EE
:10024000ACE8C009ACE8C0098D46704710B504465B
:10025000AFF300802046BDE81040FFF7A8BF0000C4
:10026000004870477000002001491820ABBEFEE72F
:100270002600020070472DE9F041024600250026C5
:10028000002000230024002791F803C00CF00F0584
:1002900091F803C00CF0100CBCF1000F03D091F8E2
:1002A00002C04CEA050591F800C0BCF1000F31D046
:1002B000146800202BE04FF0010C0CFA00F3B1F8A9
:1002C00000C00CEA03069E4220D183004FF00F0CC1
:1002D0000CFA03F7BC4305FA03FC4CEA040491F85A
:1002E00003C0BCF1280F06D14FF0010C0CFA00FC42
:1002F000C2F814C00AE091F803C0BCF1480F05D160
:100300004FF0010C0CFA00FCC2F810C0401C082889
:10031000D1D31460B1F800C0BCF1FF0F34DD5468D4
:1003200000202EE000F1080C4FF0010808FA0CF351
:10033000B1F800C00CEA03069E4221D183004FF0C1
:100340000F0C0CFA03F7BC4305FA03FC4CEA040457
:1003500091F803C0BCF1280F05D100F1080C08FA90
:100360000CF8C2F8148091F803C0BCF1480F07D113
:1003700000F1080C4FF0010808FA0CF8C2F81080E0
:10038000401C0828CED35460BDE8F08129B1064A4C
:1003900092690243044B9A6104E0034A92698243E2
:1003A000014B9A61704700000010024010B500F048
:1003B00001F810BD0CB50020019000902A4800689B
:1003C00040F480302849086000BF2748006800F4E6
:1003D000003000900198401C0190009818B90198D5
:1003E000B0F5A06FF1D12048006800F4003010B1E2
:1003F0000120009001E0002000900098012831D1F8
:1004000019484068184948600846406848600846EE
:10041000406848600846406820F47C104860084600
:10042000406840F4981048600846006840F08070CA
:10043000086000BF0C48006800F000700028F9D088
:100440000948406820F003000749486008464068B2
:1004500040F00200486000BF0348406800F00C0014
:100460000828F9D10CBD00000010024010B5144856
:10047000006840F0010012490860084640681149D0
:1004800008400F494860084600680F4908400C4979
:1004900008600846006820F480200860084640682C
:1004A00020F4FE0048604FF41F0088600020C862FE
:1004B000FFF77CFF4FF000600449086010BD0000AA
:1004C000001002400000FFF8FFFFF6FE08ED00E01C
:1004D00010B50446002307E0054850F82300E0600B
:1004E000044800F02DF85B1C062BF5DB10BD000066
:1004F00058000020C07A100030B504460D4609238C
:1005000007E0054850F82300E060284600F018F89E
:100510005B1E002BF5DA30BD0000002030B504462C
:100520000D46002307E0054850F82300E060284608
:1005300000F006F85B1C0A2BF5DB30BD0000002044
:1005400000BF011EA0F10100FBD170471FB5402084
:10055000202110220823CDE90032CDE90210042326
:1005600002220121094800F015F80DE0084907486A
:10057000FFF7D4FF0548FFF7ABFF05490348FFF736
:10058000BBFF0248FFF7A4FFF0E7000000080140AE
:1005900080EE36002DE9F84F04460D4616461F46FC
:1005A000DDE90CABDDE90A891A48844204D1012156
:1005B0000420FFF7EBFE13E01748844204D1012129
:1005C0000820FFF7E3FE0BE01448844204D1012128
:1005D0001020FFF7DBFE03E001212020FFF7D6FE0D
:1005E00010208DF8030003208DF8020045EA060074
:1005F000384340EA080040EA090040EA0A0040EABD
:100600000B00ADF8000069462046FFF734FEBDE858
:10061000F88F000000080140000C0140001001406C
:100620004006000800000020700000005C01000887
:10063000B006000870000020600600007801000885
:100640003F000000060000005B0000004F000000BB
:10065000660000006D0000007C0000000700000044
:100660007F0000006F000000770000007F000000A6
:10067000390000003F000000790000007100000018
:100680007D000000760000004000000049000000EE
:100690005C000000520000000100000002000000A9
:1006A000040000000800000010000000200000000E
:04000005080001BD31
:00000001FF
