:020000040800F2
:1000000060060020A1010008A9010008AB0100085A
:10001000AD010008AF010008B101000800000000B8
:10002000000000000000000000000000B301000814
:10003000B501000800000000B7010008B901000880
:10004000BB010008BB010008BB010008BB010008A0
:10005000BB010008BB010008BB010008BB01000890
:100060005D020008BB010008BB010008BB010008DD
:10007000BB010008BB010008BB010008BB01000870
:10008000BB010008BB010008BB0100080000000024
:1000900000000000000000000000000085020008D1
:1000A000BB010008BB010008BB010008BB01000840
:1000B000BB010008BB010008BB010008BB01000830
:1000C000BB010008BB010008BB010008BB01000820
:1000D000BB010008BB010008BB010008BB01000810
:1000E000BB010008BB010008BB01000800000000C4
:1000F0000000000000000000000000000000000000
:1001000000000000000000000000000000000000EF
:100110000000000000000000BB010008BB01000857
:1001200000F002F800F02CF80AA090E8000C8244DD
:100130008344AAF10107DA4501D100F021F8AFF2BA
:10014000090EBAE80F0013F0010F18BFFB1A43F0B5
:10015000010318472C0600003C0600000023002481
:1001600000250026103A28BF78C1FBD8520728BFC7
:1001700030C148BF0B6070471FB51FBD10B510BD23
:1001800000F031F81146FFF7F7FF00F0E1FA00F058
:100190004FF803B4FFF7F2FF03BC00F057F800007C
:1001A0000948804709480047FEE7FEE7FEE7FEE70B
:1001B000FEE7FEE7FEE7FEE7FEE7FEE70448054947
:1001C000054A064B7047000025060008210100087B
:1001D0006000002060060020600200206002002015
:1001E000704770477047754600F02CF8AE46050022
:1001F0006946534620F00700854618B020B5FFF742
:10020000DDFFBDE820404FF000064FF000074FF043
:1002100000084FF0000B21F00701AC46ACE8C00924
:10022000ACE8C009ACE8C009ACE8C0098D4670472D
:1002300010B50446AFF300802046BDE81040FFF73C
:10024000A8BF0000004870470000002001491820A6
:10025000ABBEFEE7260002007047000010B5042088
:1002600000F02AF830B10721044800F030F90448C2
:1002700000F00AFA042000F019F810BD000C01404B
:1002800080EE360010B5402000F016F830B107219E
:10029000044800F01AF9044800F0F6F9402000F094
:1002A00005F810BD000C014080EE360001490860E1
:1002B0007047000014040140014600200022074B53
:1002C0001B6803EA0102054B14331B680B4013B192
:1002D0000AB1012000E00020704700000004014046
:1002E000002123498279002A3AD00A46126803681D
:1002F0009A430B461A600A1D126803689A430B1D45
:100300001A60027911440A6803681A430A60184A9D
:100310000832126803689A43154B08331A601A1D95
:10032000126803689A43124B0C331A604279102A00
:100330000ED11A1F126803681A430D4B08331A6056
:100340001A1D126803681A43094B0C331A600DE03A
:100350000749427911440A6803681A430A6005E0B4
:10036000027911440A6803689A430A6070470000E2
:100370000004014030B500228B071C0F0F2303FA45
:1003800004F20B4B8C1053F824309343084C8D101F
:1003900044F8253023468C1053F824308C07240F62
:1003A00000FA04F42343024C8D1044F8253030BD8C
:1003B000080001402DE9F0410246002500260020FA
:1003C00000230024002791F803C00CF00F0591F8DA
:1003D00003C00CF0100CBCF1000F03D091F802C068
:1003E0004CEA050591F800C0BCF1000F31D014684B
:1003F00000202BE04FF0010C0CFA00F3B1F800C024
:100400000CEA03069E4220D183004FF00F0C0CFA39
:1004100003F7BC4305FA03FC4CEA040491F803C05B
:10042000BCF1280F06D14FF0010C0CFA00FCC2F809
:1004300014C00AE091F803C0BCF1480F05D14FF099
:10044000010C0CFA00FCC2F810C0401C0828D1D3E3
:100450001460B1F800C0BCF1FF0F34DD5468002017
:100460002EE000F1080C4FF0010808FA0CF3B1F887
:1004700000C00CEA03069E4221D183004FF00F0C0E
:100480000CFA03F7BC4305FA03FC4CEA040491F8A8
:1004900003C0BCF1280F05D100F1080C08FA0CF8D4
:1004A000C2F8148091F803C0BCF1480F07D100F1E5
:1004B000080C4FF0010808FA0CF8C2F81080401C34
:1004C0000828CED35460BDE8F081416170470161D6
:1004D0007047000070B5002100230F22C47804B3D8
:1004E000154C246804F4E064C4F5E064210AC1F109
:1004F0000403CA40447804FA03F184781440214389
:1005000009010E4C0678A155047804F01F0501245A
:10051000AC4005786D11AD0005F1E025C5F800414E
:1005200009E0047804F01F050124AC40044D06786E
:10053000761145F8264070BD0CED00E000E400E0C7
:1005400080E100E029B1064A92690243044B9A61B6
:1005500004E0034A92698243014B9A6170470000AC
:100560000010024010B500F001F810BD0CB50020DD
:10057000019000902A48006840F4803028490860C3
:1005800000BF2748006800F4003000900198401C2C
:100590000190009818B90198B0F5A06FF1D12048EA
:1005A000006800F4003010B10120009001E000204C
:1005B00000900098012831D11948406818494860D6
:1005C00008464068486008464068486008464068F9
:1005D00020F47C1048600846406840F49810486059
:1005E0000846006840F08070086000BF0C48006852
:1005F00000F000700028F9D00948406820F003009E
:10060000074948600846406840F00200486000BF63
:100610000348406800F00C000828F9D10CBD000028
:100620000010024010B51448006840F00100124963
:10063000086008464068114908400F49486008466C
:1006400000680F4908400C4908600846006820F41B
:10065000802008600846406820F4FE0048604FF49F
:100660001F0088600020C862FFF77CFF4FF0006029
:100670000449086010BD0000001002400000FFF8AF
:10068000FFFFF6FE08ED00E000BF011EA0F1010033
:10069000FBD170470EB501210846FFF753FF022139
:1006A0000846FFF767FE06210220FFF763FE44209D
:1006B000019001208DF80A0000208DF80800082024
:1006C0008DF8090001A8FFF70BFE08208DF8000047
:1006D00001208DF8030000208DF801008DF8020044
:1006E0006846FFF7F7FE17208DF8000001208DF80F
:1006F00003008DF8010000208DF802006846FFF726
:10070000E9FE0EBD08B501210820FFF71BFF0121FE
:100710001020FFF717FF10208DF803000720ADF819
:10072000000003208DF8020069460748FFF742FEEB
:1007300028208DF803004420ADF8000069460348E6
:10074000FFF738FE08BD0000000C0140001001401A
:10075000FFF7D8FFFFF79EFF0DE007210648FFF7E0
:10076000B6FE0648FFF790FF07210348FFF7ADFEEE
:100770000248FFF789FFF0E7000C0140407E0500CA
:100780009007000800000020600600005C010008DF
:04000005080001A14D
:00000001FF
