:020000040800F2
:1000000070060020BD010008C5010008C7010008F6
:10001000C9010008CB010008CD0100080000000064
:10002000000000000000000000000000CF010008F8
:10003000D101000800000000D3010008D50100082C
:10004000D7010008D7010008D7010008D701000830
:10005000D7010008D7010008D7010008D701000820
:10006000D7010008D7010008D7010008D701000810
:10007000D7010008D7010008D7010008D701000800
:10008000D7010008D7010008D701000800000000D0
:10009000000000000000000000000000D701000880
:1000A000D7010008D7010008D7010008D7010008D0
:1000B000D7010008D7010008D7010008D7010008C0
:1000C000D7010008D7010008D7010008D7010008B0
:1000D000D7010008D7010008D7010008D7010008A0
:1000E000D7010008D7010008D70100080000000070
:1000F0000000000000000000000000000000000000
:1001000000000000000000000000000000000000EF
:100110000000000000000000D7010008D70100081F
:1001200000F002F800F03AF80AA090E8000C8244CF
:100130008344AAF10107DA4501D100F02FF8AFF2AC
:10014000090EBAE80F0013F0010F18BFFB1A43F0B5
:1001500001031847800D0000A00D0000103A24BFD5
:1001600078C878C1FAD8520724BF30C830C144BF1C
:1001700004680C607047000000230024002500265E
:10018000103A28BF78C1FBD8520728BF30C148BFFA
:100190000B6070471FB51FBD10B510BD00F031F8E2
:1001A0001146FFF7F7FF00F06FFA00F04FF803B4C5
:1001B000FFF7F2FF03BC00F057F800000948804742
:1001C00009480047FEE7FEE7FEE7FEE7FEE7FEE739
:1001D000FEE7FEE7FEE7FEE704480549054A064B51
:1001E00070470000BD0500082101000870000020D4
:1001F00070060020700200207002002070477047D7
:100200007047754600F02CF8AE4605006946534627
:1002100020F00700854618B020B5FFF7DDFFBDE8E8
:1002200020404FF000064FF000074FF000084FF05D
:10023000000B21F00701AC46ACE8C009ACE8C009EE
:10024000ACE8C009ACE8C0098D46704710B504465B
:10025000AFF300802046BDE81040FFF7A8BF0000C4
:10026000004870470C00002001491820ABBEFEE793
:1002700026000200704721B1826842F001028260CC
:1002800003E0826822F00102826070470146C86C78
:1002900080B270470246002013680B400BB101206A
:1002A00000E000207047000030B502460020002327
:1002B00050680F4C20400D790C6844EA0524204317
:1002C000506090680B4C2040D1E902542C434D798A
:1002D00044EA450420439060D06A20F470000C7C0E
:1002E000641EE4B2234340EA0350D06230BD0000F4
:1002F000FFFEF0FFFDF7F1FFF0B504460D460020CC
:100300000021092D11DDE068A5F10A0606EB46077C
:10031000072606FA07F18843A5F10A0606EB46060A
:1003200003FA06F10843E0600CE0206905EB45079D
:10033000072606FA07F1884305EB450603FA06F19E
:1003400008432061072A0FDA606B561E06EB86070A
:100350001F2606FA07F18843561E06EB860605FAA5
:1003600006F10843606322E00D2A0FDA206BD61FE6
:1003700006EB86071F2606FA07F18843D61F06EB11
:10038000860605FA06F10843206310E0E06AA2F150
:100390000D0606EB86071F2606FA07F18843A2F131
:1003A0000D0606EB860605FA06F10843E062F0BD8D
:1003B00021B1826842F4A002826003E0826822F4E4
:1003C000A002826070472DE9F04102460025002618
:1003D000002000230024002791F803C00CF00F0533
:1003E00091F803C00CF0100CBCF1000F03D091F891
:1003F00002C04CEA050591F800C0BCF1000F31D0F5
:10040000146800202BE04FF0010C0CFA00F3B1F857
:1004100000C00CEA03069E4220D183004FF00F0C6F
:100420000CFA03F7BC4305FA03FC4CEA040491F808
:1004300003C0BCF1280F06D14FF0010C0CFA00FCF0
:10044000C2F814C00AE091F803C0BCF1480F05D10E
:100450004FF0010C0CFA00FCC2F810C0401C082838
:10046000D1D31460B1F800C0BCF1FF0F34DD546883
:1004700000202EE000F1080C4FF0010808FA0CF300
:10048000B1F800C00CEA03069E4221D183004FF070
:100490000F0C0CFA03F7BC4305FA03FC4CEA040406
:1004A00091F803C0BCF1280F05D100F1080C08FA3F
:1004B0000CF8C2F8148091F803C0BCF1480F07D1C2
:1004C00000F1080C4FF0010808FA0CF8C2F810808F
:1004D000401C0828CED35460BDE8F08129B1064AFB
:1004E00092690243044B9A6104E0034A9269824391
:1004F000014B9A61704700000010024010B500F0F7
:1005000001F810BD0CB50020019000902A48006849
:1005100040F480302849086000BF2748006800F494
:10052000003000900198401C0190009818B9019883
:10053000B0F5A06FF1D12048006800F4003010B190
:100540000120009001E0002000900098012831D1A6
:10055000194840681849486008464068486008469D
:10056000406848600846406820F47C1048600846AF
:10057000406840F4981048600846006840F0807079
:10058000086000BF0C48006800F000700028F9D037
:100590000948406820F00300074948600846406861
:1005A00040F00200486000BF0348406800F00C00C3
:1005B0000828F9D10CBD00000010024010B5144805
:1005C000006840F00100124908600846406811497F
:1005D00008400F494860084600680F4908400C4928
:1005E00008600846006820F48020086008464068DB
:1005F00020F4FE0048604FF41F0088600020C862AD
:10060000FFF77CFF4FF000600449086010BD000058
:10061000001002400000FFF8FFFFF6FE08ED00E0CA
:1006200000B585B001214802FFF758FF01208DF881
:100630000500002003904FF46020029000200090FD
:1006400001208DF8100000208DF804006946044850
:10065000FFF72AFE01210248FFF70DFE05B000BD9D
:100660000024014008B501210420FFF737FF0020D6
:100670008DF803000120ADF8000069460148FFF73E
:10068000A2FE08BD0008014008B5FFF7EBFFFFF729
:10069000C7FF20E000F04AF80F49088008460088AC
:1006A00000F08DF806460D4A0D4B00F09BF804460D
:1006B00000F054F80B4908600748008800F0B4FACD
:1006C00004460020084B024608490090204600F0EE
:1006D00011F807490860DDE700000020F85D3834B4
:1006E000B242483F040000200000344300907B45A4
:1006F000080000202DE9F05F04460D4616461F460F
:10070000DDF828803146284600F06EFB82464146DF
:10071000384600F069FB8346514600F0C3F9814634
:10072000214600F095FABDE8F09F000010B50523C2
:10073000012200210848FFF7DFFD01210648FFF7ED
:1007400037FE00BF02210448FFF7A4FD0028F9D0BE
:100750000148FFF79BFD10BD0024014021F000423D
:10076000A2F16052B2F5801F01F0004328BFD2F120
:100770007F6C0BD95FEA001C43EAC20242EB507067
:1007800018BF704728BF20F001007047B2F5801FE6
:10079000BCBF184670474FEA410C1CF5001F02D23F
:1007A000084600F01CBB70B500F0C6F800000089D8
:1007B000FFF7F6BF4FF00040A0F580007047B0FA99
:1007C00080F310FA03F10AD0C3F11D0303F580632F
:1007D0004FEA41504FEA035202EBD12170474FF0EC
:1007E00000007047DFF848C170B51CEA111E1EBF3B
:1007F0001CEA13159EEA0C0F95EA0C0F00F06F80AF
:1008000081EA030423EA4C134EEAD47E21EA4C1118
:1008100041F4801143F48013AE44A1FB024CA0FBD1
:100820000365AEF17F7E361955EB0C05A1FB034C39
:100830004CF10003A0FB021C16EB0C06654153F1C2
:100840000003094218BF46F0010613F4007F0BD1E4
:100850004FEA03314FEA0530340341EA155140EACB
:1008600016506FF003020AE04FEAC3214FEAC52099
:10087000F40241EA555140EA56506FF0020202EB91
:100880002E4201EB025585EACE710AD05FEA440C94
:1008900018BF24F0004450F1000041F1000120EAAB
:1008A000D47040F2FE7C624500D270BDA84214BFF5
:1008B0004FF080444FF04044002E08BF0024BEF1AA
:1008C000806FA8BFA1F1C041BDE8704080F2828076
:1008D0004FF0000001F1C04101F0004170479EEA75
:1008E0000C0F0CEA131518BF95EA0C0F06D04FF049
:1008F000000081EA030E0EF0004170BD00F01CF80C
:100900008900013E00F007B800F009B84FEA430C37
:100910005FEA5C5C08D081EA030100F05BB84FEA53
:10092000410C5FEA5C5CF6D14FF000000149704772
:100930000000FF070000F87F0EF1020E2EF0030EFC
:100940005EF8046B364205D4012A43EB030515F526
:10095000001F12D8012841EB010C1CF5001F0CD818
:100960000ED14FEAD17C15F5001F0CEB4C0C0CF1AD
:10097000020C08BF4CEBD37C04E04FF0080C01E004
:100980004FEAD37C0CEB4C0526FA05F606F0070679
:10099000B6F1040C06D20EEB860CBDE870404CF0AC
:1009A000010C6047DFE80CF0090B02024FF0004138
:1009B0004FF00000A1F5002170BD19461046012836
:1009C00051EB010418BFD4F5001484BF002001F0DE
:1009D000004170BD0808A0F500114FEA31017047D1
:1009E00090EA010F48BF81F0004100F10482421AF1
:1009F0003CBF801A89184FEAD0524FF07F4C1CEA56
:100A0000410FA2EBD15318BF9CEA026F00F03B806C
:100A10004FF0004C4CEA00204CEA012121FA03FC83
:100A200010EB0C0C1ED202F1FF325FEA1C2040EBEF
:100A3000C25038BF70471CF07F0F4FEA400C18BF00
:100A4000BCF17F4F38BF7047C3F12003994008BF06
:100A500020F00100BCF17F4F38BF7047A0F1C040CB
:100A600000F0BDB94FEA3C00000A40EBC25028BF7D
:100A70001CF0FF0F4FEA400CE6D018BFBCF17F4FCF
:100A800038BF7047EAE79CEA026F05D010EA5C0FB6
:100A900008BF00F00040704710B500F05AF900BFE1
:100AA00064FBBE3E4FF47F0C1CEAD0121EBF1CEA52
:100AB000D11392EA0C0F93EA0C0F00F0858090EAB4
:100AC000010F48BF42F4807240F4000C41F4000072
:100AD0002CF07F4120F07F4000B58142A2EB030261
:100AE0000FF2081CACEB504EC0F100009EF800E085
:100AF0004FEA4E0E00FB0EFC38BF49004FEA2C1C9B
:100B000002F5FA020CFB0EF34FEACE1E4FEA112C4F
:100B10004FEAC1210EEB635E42EB22420EFB0CFC5E
:100B20004FEA1C5300FB03114FEA112C4FEA01312D
:100B30000EFB0CFC4FEADC4C00FB0C11C14228BF41
:100B400009184CEB03335DF804EB10EB410143EB68
:100B5000C250B2F57C0F38BF704729D512F0F00FA4
:100B60001CBF00F1C04000F000407047008182834C
:100B70008485868788898B8C8D8E8F9192939596AC
:100B800097999A9C9D9FA0A2A3A5A7A8AAACAEB036
:100B9000B2B3B5B7B9BCBEC0C2C5C7C9CCCED1D43B
:100BA000D7D9DCDFE2E6E9ECF0F3F7FAFE0000006B
:100BB0004FEA400C0CF1807CBCF17E4F28BF70479F
:100BC000B0F1C04000F00BB990EA010F0CEAD1136C
:100BD00048BF42F48072624538BF634507D213F4C0
:100BE0007F0F16D080EA010000F00040704710B57A
:100BF00000F0AFF8097EFC3E00F005B880EA010085
:100C000000F00040704780EA010000F0004000F072
:100C1000E6B812F47F0F04BF0248704780EA010073
:100C200000F0DDB80000C07FB0FA80F310FA03F2E4
:100C3000C3F19D030AD0D90501EB1220530638BF3A
:100C4000704700F1010008BF20F00100704700006C
:100C50004FF47F0C1CEAD0121EBF1CEAD11392EA9B
:100C60000C0F93EA0C0F00F0478090EA010F48BF89
:100C700042F480724FF0004C4CEA00204CEA012113
:100C800002EB0302A0FB0113A2F50002002918BF2A
:100C900043F001035B0028BF4FEA330342EB2242DB
:100CA0005FEA132C4CEBC2502EBFBCEB436FB2F586
:100CB0007C0F70474FEA036CBCF1004F08BF20F077
:100CC0000100B2F57C0F38BF70470BD582F0FF02F0
:100CD00012F5803FC8BF704700F1C040D8BF00F098
:100CE0000040704700F5000C5FEA4C0C48BF7047AD
:100CF000B0F1C04000F073B890EA010F0CEAD113D4
:100D000048BF42F48072624538BF634504D280EA2E
:100D1000010000F00040704710B500F01AF800BF65
:100D20008900013E00F007B800F009B85FEA410C05
:100D30005FEA1C6C08D080EA010000F050B85FEA5E
:100D4000400C5FEA1C6CF6D14FF00040A0F580002B
:100D500070470EF1020E2EF0030E5EF8044B244293
:100D600004D44FEA4102B2F17F4F11D84FEA400359
:100D7000B3F17F4F0CD80ED14FEAD07CB2F17F4F48
:100D80000CEB4C0C0CF1020C08BF4CEBD17C04E0DA
:100D90004FF0080C01E04FEAD17C0CEB4C0324FA35
:100DA00003F404F00704B4F1040C06D20EEB840C37
:100DB000BDE810404CF0010C6047DFE80CF007087C
:100DC00002024FF00040A0F5800010BD084642002E
:100DD00018BFD2F1807288BF00F0004010BDFF2123
:100DE00041EAD050C005704790EA010F48BF81F03A
:100DF00000413FF5FCAD421A04D882F00042A0EB5E
:100E0000020011444FEAD0524FF07F4C1CEA410FD0
:100E1000A2EBD15318BF9CEA026F4AD04FF0004CAE
:100E20004CEA00204CEA012121FA03FCB0EB0C0C47
:100E30000FD412F0FE0F36D05FEA4C001DD5001221
:100E400040EBC25038BF70471CF03F0F18BF7047CF
:100E50000BE0A2F101025FEA1C2040EBC25038BF58
:100E600070471CF07F0F18BF7047C3F120039940F3
:100E700014BF401E20F00100704780084FEA122383
:100E800008BF7047B0FA80FCA2EB0C02CCF1280C32
:100E900060FA0CF093EA122F04BF00EBC2507047C7
:100EA0004FEAC3707047130A5FEADC1008BF70474F
:100EB000F6E79CEA026F04D010EA5C0F08BF00203E
:100EC000704710B5FFF745FF40DFF63E81F0004068
:100ED00070470000F40E0008000000200C00000025
:100EE0005C010008000F00080C00002064060000F0
:100EF0007801000800000000000000000000000071
:04000005080001BD31
:00000001FF
