:020000040800F2
:1000000060060020A1010008A9010008AB0100085A
:10001000AD010008AF010008B101000800000000B8
:10002000000000000000000000000000B301000814
:10003000B501000800000000B7010008B901000880
:10004000BB010008BB010008BB010008BB010008A0
:10005000BB010008BB010008BB010008BB01000890
:10006000BB010008BB010008BB010008BB01000880
:10007000BB010008BB010008BB010008BB01000870
:10008000BB010008BB010008BB0100080000000024
:10009000000000000000000000000000BB0100089C
:1000A000BB010008BB010008BB010008BB01000840
:1000B000BB010008BB010008BB010008BB01000830
:1000C000BB010008BB010008BB010008BB01000820
:1000D000BB010008BB010008BB010008BB01000810
:1000E000BB010008BB010008BB01000800000000C4
:1000F0000000000000000000000000000000000000
:1001000000000000000000000000000000000000EF
:100110000000000000000000BB010008BB01000857
:1001200000F002F800F02CF80AA090E8000C8244DD
:100130008344AAF10107DA4501D100F021F8AFF2BA
:10014000090EBAE80F0013F0010F18BFFB1A43F0B5
:1001500001031847C0070000D00700000023002457
:1001600000250026103A28BF78C1FBD8520728BFC7
:1001700030C148BF0B6070471FB51FBD10B510BD23
:1001800000F031F81146FFF7F7FF00F02DFB00F00B
:100190004FF803B4FFF7F2FF03BC00F057F800007C
:1001A0000948804709480047FEE7FEE7FEE7FEE70B
:1001B000FEE7FEE7FEE7FEE7FEE7FEE70448054947
:1001C000054A064B70470000710400082101000831
:1001D0006000002060060020600200206002002015
:1001E000704770477047754600F02CF8AE46050022
:1001F0006946534620F00700854618B020B5FFF742
:10020000DDFFBDE820404FF000064FF000074FF043
:1002100000084FF0000B21F00701AC46ACE8C00924
:10022000ACE8C009ACE8C009ACE8C0098D4670472D
:1002300010B50446AFF300802046BDE81040FFF73C
:10024000A8BF0000004870470000002001491820A6
:10025000ABBEFEE72600020070472DE9F0410246E2
:1002600000250026002000230024002791F803C069
:100270000CF00F0591F803C00CF0100CBCF1000F4E
:1002800003D091F802C04CEA050591F800C0BCF11A
:10029000000F31D0146800202BE04FF0010C0CFA55
:1002A00000F3B1F800C00CEA03069E4220D183009F
:1002B0004FF00F0C0CFA03F7BC4305FA03FC4CEAB1
:1002C000040491F803C0BCF1280F06D14FF0010CD3
:1002D0000CFA00FCC2F814C00AE091F803C0BCF1AB
:1002E000480F05D14FF0010C0CFA00FCC2F810C009
:1002F000401C0828D1D31460B1F800C0BCF1FF0F36
:1003000034DD546800202EE000F1080C4FF00108A5
:1003100008FA0CF3B1F800C00CEA03069E4221D1A2
:1003200083004FF00F0C0CFA03F7BC4305FA03FCF3
:100330004CEA040491F803C0BCF1280F05D100F188
:10034000080C08FA0CF8C2F8148091F803C0BCF14C
:10035000480F07D100F1080C4FF0010808FA0CF81B
:10036000C2F81080401C0828CED35460BDE8F0814C
:1003700029B1064AD2690243044BDA6104E0034A18
:10038000D2698243014BDA617047000000100240DD
:1003900029B1064A92690243044B9A6104E0034A78
:1003A00092698243014B9A6170470000001002403D
:1003B00010B500F001F810BD0CB5002001900090C0
:1003C0002A48006840F480302849086000BF274868
:1003D000006800F4003000900198401C01900098E3
:1003E00018B90198B0F5A06FF1D12048006800F469
:1003F000003010B10120009001E000200090009832
:10040000012831D1194840681849486008464068B9
:1004100048600846406848600846406820F47C1000
:1004200048600846406840F49810486008460068F4
:1004300040F08070086000BF0C48006800F0007059
:100440000028F9D00948406820F0030007494860B7
:100450000846406840F00200486000BF034840681A
:1004600000F00C000828F9D10CBD0000001002407B
:1004700010B51448006840F00100124908600846B1
:100480004068114908400F494860084600680F4914
:1004900008400C4908600846006820F48020086085
:1004A0000846406820F4FE0048604FF41F00886052
:1004B0000020C862FFF77CFF4FF00060044908602D
:1004C00010BD0000001002400000FFF8FFFFF6FE24
:1004D00008ED00E021B1028842F00102028004E050
:1004E00002884FF6FE731A400280704770B50024F0
:1004F00000220023058C4FF6FE7635400584028CE1
:100500008388048B4FF68F752C40B51E2C400D88C8
:100510002C43751E2A400D892A434D882A43144DC9
:10052000A8420BD0134DA84208D0134DA84205D0C5
:10053000124DA84202D0124DA84213D14FF6F775C2
:100540002A404D892A434FF6FB752A408D882A435D
:100550004FF6FF652B404FF6FF552B408D892B43FF
:10056000CD892B4383800483CD888586028470BD2A
:10057000002C014000340140004001400044014093
:10058000004801400A460021018B4FF6F7731940DD
:10059000114301837047000070B50024002200233E
:1005A000058C4FF6EF7635400584028C8388048BEA
:1005B00048F6FF752C404FF6FF452C400D884FF64E
:1005C000FF7606EA05252C434FF6DF752A400D8994
:1005D00006EA05152A434D8806EA05152A43154DF6
:1005E000A84202D0144DA8421DD14FF67F752A4073
:1005F0004D894FF6FF7606EA05152A434FF6BF757B
:100600002A408D8806EA05152A434FF6FF352B4010
:100610004FF2FF752B408D8906EA85052B43CD8966
:1006200006EA85052B4383800483CD8805870284F1
:1006300070BD0000002C0140003401400A4600213A
:10064000018B4FF2FF7319404FF6FF7303EA022349
:10065000194301837047000070B500240022002375
:10066000058C4FF6FF6635400584028C8388848BA9
:100670004FF68F752C404FF6FC752C400D882C439F
:100680004FF6FF552A400D894FF6FF7606EA0525FD
:100690002A434D8806EA05252A43154DA84202D073
:1006A000144DA8421DD14FF2FF752A404D894FF6D7
:1006B000FF7606EA05252A434FF6FF352A408D8846
:1006C00006EA05252A434EF6FF752B404DF6FF75C9
:1006D0002B408D8906EA05152B43CD8906EA0515C1
:1006E0002B4383808483CD888587028470BD00007E
:1006F000002C0140003401400A460021818B4FF656
:10070000F77319401143818370470000002202886B
:100710001D4B98420ED01D4B98420BD0B0F1804F2C
:1007200008D01B4B984205D01A4B984202D01A4B66
:10073000984204D14FF68F731A404B881A43174BD7
:10074000984207D0164B984204D04FF6FF431A4008
:10075000CB881A4302808B8883850B8803850A4BDC
:1007600098420BD0094B984208D00E4B984205D0C6
:100770000D4B984202D00D4B984201D10B7A038663
:100780000123838270470000002C014000340140A7
:100790000004004000080040000C00400010004031
:1007A0000014004000400140004401400048014066
:1007B00000BF011EA0F10100FBD1704708B5012167
:1007C0000420FFF7E5FD18208DF803000720ADF8A1
:1007D000000003208DF8020069460248FFF73DFD46
:1007E00008BD000000080140FFF7E8FF00F074F8C2
:1007F00029E0012407E0204600F056F84FF461603C
:10080000FFF7D6FF641C40F65F108442F3DB01243F
:1008100007E0204600F018F84FF46160FFF7C8FFCA
:10082000641C40F65F108442F3DB012407E020469D
:1008300000F022F84FF46160FFF7BAFF641C40F645
:100840005F108442F3DBD4E71FB504466020ADF8A7
:1008500000000020ADF808000120ADF80200A0B2B1
:10086000ADF8060069464FF08040FFF795FE08217D
:10087000C806FFF7E3FE1FBD1FB504466020ADF8B4
:1008800000000020ADF808000120ADF80200A0B281
:10089000ADF8060069464FF08040FFF7DDFE082105
:1008A000C806FFF729FF1FBD1FB504466020ADF83D
:1008B00000000020ADF808000120ADF80200A0B251
:1008C000ADF8060069464FF08040FFF70FFE0821A3
:1008D000C806FFF757FE1FBD0EB501210846FFF7FA
:1008E00047FD0020ADF80600ADF8020040F65F10AD
:1008F000ADF804000A20ADF8000000208DF80800D3
:1009000069464FF08040FFF701FF01218807FFF79C
:10091000E1FD0EBD24090008000000206006000073
:040920005C0100086E
:04000005080001A14D
:00000001FF
