:020000040800F2
:10000000B8070020F5010008FD010008FF01000805
:1000100001020008030200080502000800000000B9
:1000200000000000000000000000000007020008BF
:1000300009020008000000000B0200080D02000881
:100040000F0200080F0200080F0200080F0200084C
:100050000F0200080F0200080F0200080F0200083C
:100060000F0200080F0200080F0200080F0200082C
:100070000F0200080F0200080F0200080F0200081C
:100080000F0200080F0200080F0200080000000025
:100090000000000000000000000000000F02000847
:1000A0000F0200080F0200080F0200080F020008EC
:1000B0000F0200080F0200080F0200080F020008DC
:1000C0000F0200080F0200080F0200080F020008CC
:1000D0000F0200080F0200080F0200080F020008BC
:1000E0000F0200080F0200080F02000800000000C5
:1000F0000000000000000000000000000000000000
:1001000000000000000000000000000000000000EF
:1001100000000000000000000F0200080F020008AD
:1001200000F002F800F03CF80AA090E8000C8244CD
:100130008344AAF10107DA4501D100F031F8AFF2AA
:10014000090EBAE80F0013F0010F18BFFB1A43F0B5
:10015000010318472406000044060000103A24BF9B
:1001600078C878C1FAD8520724BF30C830C144BF1C
:1001700004680C607047000000230024002500265E
:10018000103A28BF78C1FBD8520728BF30C148BFFA
:100190000B6070471FB500F062F81FBD10B510BDB1
:1001A00000F069F81146FFF7F5FF00F0D3F900F011
:1001B00087F803B4FFF7F2FF03BC00F091F80000EA
:1001C0000B49D1F800C04A685CF8043B1068184439
:1001D00042F8040B8C4528BFA1F1DC0C8A4228BFF1
:1001E000A1F1DC02C1F800C04A6020F00040704775
:1001F0004C0100200948804709480047FEE7FEE718
:10020000FEE7FEE7FEE7FEE7FEE7FEE7FEE7FEE7C6
:1002100004480549054A064B70470000E5040008FC
:1002200021010008B8010020B8070020B803002011
:10023000B80300200B4910B5A1F17C020A4CC2E9B9
:100240003712372106E000EB104342F82130074B0C
:1002500000FB03400B1EA1F10101F4DC10BD0120E5
:10026000E8E70000EC000020E119D666CD0D0100A2
:10027000704770477047754600F02CF8AE46050091
:100280006946534620F00700854618B020B5FFF7B1
:10029000BFFFBDE820404FF000064FF000074FF0D1
:1002A00000084FF0000B21F00701AC46ACE8C00994
:1002B000ACE8C009ACE8C009ACE8C0098D4670479D
:1002C00010B50446AFF300802046BDE81040FFF7AC
:1002D00070BF0000004870475401002070470000C4
:1002E00001491820ABBEFEE7260002002DE9F041CF
:1002F000024600250026002000230024002791F854
:1003000003C00CF00F0591F803C00CF0100CBCF109
:10031000000F03D091F802C04CEA050591F800C027
:10032000BCF1000F31D0146800202BE04FF0010C1D
:100330000CFA00F3B1F800C00CEA03069E4220D18B
:1003400083004FF00F0C0CFA03F7BC4305FA03FCD3
:100350004CEA040491F803C0BCF1280F06D14FF019
:10036000010C0CFA00FCC2F814C00AE091F803C0BA
:10037000BCF1480F05D14FF0010C0CFA00FCC2F89B
:1003800010C0401C0828D1D31460B1F800C0BCF1E3
:10039000FF0F34DD546800202EE000F1080C4FF010
:1003A000010808FA0CF3B1F800C00CEA03069E42FB
:1003B00021D183004FF00F0C0CFA03F7BC4305FA70
:1003C00003FC4CEA040491F803C0BCF1280F05D1EA
:1003D00000F1080C08FA0CF8C2F8148091F803C078
:1003E000BCF1480F07D100F1080C4FF0010808FAE2
:1003F0000CF8C2F81080401C0828CED35460BDE829
:10040000F081000029B1064A92690243044B9A61C7
:1004100004E0034A92698243014B9A6170470000ED
:100420000010024010B500F001F810BD0CB500201E
:10043000019000902A48006840F480302849086004
:1004400000BF2748006800F4003000900198401C6D
:100450000190009818B90198B0F5A06FF1D120482B
:10046000006800F4003010B10120009001E000208D
:1004700000900098012831D1194840681849486017
:10048000084640684860084640684860084640683A
:1004900020F47C1048600846406840F4981048609A
:1004A0000846006840F08070086000BF0C48006893
:1004B00000F000700028F9D00948406820F00300DF
:1004C000074948600846406840F00200486000BFA5
:1004D0000348406800F00C000828F9D10CBD00006A
:1004E0000010024010B51448006840F001001249A5
:1004F000086008464068114908400F4948600846AE
:1005000000680F4908400C4908600846006820F45C
:10051000802008600846406820F4FE0048604FF4E0
:100520001F0088600020C862FFF77CFF4FF000606A
:100530000449086010BD0000001002400000FFF8F0
:10054000FFFFF6FE08ED00E000BF011EA0F1010074
:10055000FBD170471FB54020202110220823CDE990
:100560000032CDE90210042302220121054800F0E7
:10057000BDF805E0034800F095F80348FFF7E4FFF5
:10058000F8E700000008014080EE3600612901D044
:10059000412903D11F4A1268C2603AE0622901D0A2
:1005A000422903D11B4A5268C26032E0632901D05C
:1005B000432903D1174A9268C2602AE0642901D016
:1005C000442903D1134AD268C26022E0652901D0D0
:1005D000452903D10F4A1269C2601AE0662901D089
:1005E000462903D10B4A5269C26012E0672901D043
:1005F000472903D1074A9269C2600AE0682901D0FD
:10060000482903D1034AD269C26002E0024A126853
:10061000C2607047280000204800002019B91F4A16
:100620001268C26038E0012903D11C4A5268C260D6
:1006300032E0022903D1194A9268C2602CE00329F2
:1006400003D1164AD268C26026E0042903D1134AB6
:100650001269C26020E0052903D1104A5269C260C4
:100660001AE0062903D10D4A9269C26014E00729F5
:1006700003D10A4AD269C2600EE0082903D1074AB1
:10068000126AC26008E0092903D1044A526AC260B2
:1006900002E0034A1268C2607047000000000020B8
:1006A0004800002070B50446FFF78AFD092190FB41
:1006B000F1F201FB1205FFF783FD072190FBF1F238
:1006C00001FB12004130C6B2A9B22046FFF7A6FFD7
:1006D0000548FFF739FF31462046FFF757FF02482C
:1006E000FFF732FF70BD000080EE36002DE9F84FB5
:1006F00004460D4616461F46DDE90CABDDE90A89C6
:100700001A48844204D101210420FFF77BFE13E044
:100710001748844204D101210820FFF773FE0BE043
:100720001448844204D101211020FFF76BFE03E03E
:1007300001212020FFF766FE10208DF80300032022
:100740008DF8020045EA0600384340EA080040EA16
:10075000090040EA0A0040EA0B00ADF800006946D3
:100760002046FFF7C3FDBDE8F88F000000080140F8
:10077000000C014000100140980700080000002014
:10078000700000005C0100080808000870000020EC
:1007900048070000780100083F0000000600000044
:1007A0005B0000004F000000660000006D000000CC
:1007B0007D000000070000007F0000006F000000C7
:1007C000770000007F000000390000003F000000BB
:1007D00079000000710000007D000000760000003C
:1007E00040000000490000005C00000052000000D2
:1007F00001000000020000000400000008000000EA
:080800001000000020000000C0
:04000005080001F5F9
:00000001FF
