:020000040800F2
:1000000068060020BD010008C5010008C7010008FE
:10001000C9010008CB010008CD0100080000000064
:10002000000000000000000000000000CF010008F8
:10003000D101000800000000D3010008D50100082C
:10004000D7010008D7010008D7010008D701000830
:10005000D7010008D7010008D7010008D701000820
:10006000D7010008D7010008D7010008D701000810
:10007000D7010008D7010008D7010008D701000800
:10008000D7010008D7010008D701000800000000D0
:10009000000000000000000000000000D701000880
:1000A000D7010008D7010008D7010008D7010008D0
:1000B000D7010008D7010008D7010008D7010008C0
:1000C000D7010008D7010008D7010008D7010008B0
:1000D000D7010008D7010008D7010008D7010008A0
:1000E000D7010008D7010008D70100080000000070
:1000F0000000000000000000000000000000000000
:1001000000000000000000000000000000000000EF
:100110000000000000000000D7010008D70100081F
:1001200000F002F800F03AF80AA090E8000C8244CF
:100130008344AAF10107DA4501D100F02FF8AFF2AC
:10014000090EBAE80F0013F0010F18BFFB1A43F0B5
:10015000010318472809000048090000103A24BF8D
:1001600078C878C1FAD8520724BF30C830C144BF1C
:1001700004680C607047000000230024002500265E
:10018000103A28BF78C1FBD8520728BF30C148BFFA
:100190000B6070471FB51FBD10B510BD00F031F8E2
:1001A0001146FFF7F7FF00F02BFA00F04FF803B409
:1001B000FFF7F2FF03BC00F057F800000948804742
:1001C00009480047FEE7FEE7FEE7FEE7FEE7FEE739
:1001D000FEE7FEE7FEE7FEE704480549054A064B51
:1001E000704700002D05000821010008680000206C
:1001F00068060020680200206802002070477047EF
:100200007047754600F02CF8AE4605006946534627
:1002100020F00700854618B020B5FFF7DDFFBDE8E8
:1002200020404FF000064FF000074FF000084FF05D
:10023000000B21F00701AC46ACE8C009ACE8C009EE
:10024000ACE8C009ACE8C0098D46704710B504465B
:10025000AFF300802046BDE81040FFF7A8BF0000C4
:10026000004870470800002001491820ABBEFEE797
:10027000260002007047000039B1084A12680123C5
:1002800083401A43054B1A6006E0044A12680123B2
:1002900083409A43014B1A6070470000007400408D
:1002A00030B5002200230A4C226840F6FE748440D8
:1002B000A243D1E900452C438D682C43CD6844EA24
:1002C000050303FA00F42243014C226030BD000014
:1002D0000074004008B500220092054A009200F127
:1002E0000802009B1A440092009A116008BD0000A9
:1002F0000074004008B500220092054A009200F107
:100300001402009B1A440092009A116008BD00007C
:10031000007400402DE9F04102460025002600202F
:1003200000230024002791F803C00CF00F0591F87A
:1003300003C00CF0100CBCF1000F03D091F802C008
:100340004CEA050591F800C0BCF1000F31D01468EB
:1003500000202BE04FF0010C0CFA00F3B1F800C0C4
:100360000CEA03069E4220D183004FF00F0C0CFADA
:1003700003F7BC4305FA03FC4CEA040491F803C0FC
:10038000BCF1280F06D14FF0010C0CFA00FCC2F8AA
:1003900014C00AE091F803C0BCF1480F05D14FF03A
:1003A000010C0CFA00FCC2F810C0401C0828D1D384
:1003B0001460B1F800C0BCF1FF0F34DD54680020B8
:1003C0002EE000F1080C4FF0010808FA0CF3B1F828
:1003D00000C00CEA03069E4221D183004FF00F0CAF
:1003E0000CFA03F7BC4305FA03FC4CEA040491F849
:1003F00003C0BCF1280F05D100F1080C08FA0CF875
:10040000C2F8148091F803C0BCF1480F07D100F185
:10041000080C4FF0010808FA0CF8C2F81080401CD4
:100420000828CED35460BDE8F081000029B1064A07
:10043000D2690243044BDA6104E0034AD269824381
:10044000014BDA61704700000010024029B1064AF2
:1004500092690243044B9A6104E0034A9269824321
:10046000014B9A61704700000010024010B500F087
:1004700001F810BD0CB50020019000902A480068DA
:1004800040F480302849086000BF2748006800F425
:10049000003000900198401C0190009818B9019814
:1004A000B0F5A06FF1D12048006800F4003010B121
:1004B0000120009001E0002000900098012831D137
:1004C000194840681849486008464068486008462E
:1004D000406848600846406820F47C104860084640
:1004E000406840F4981048600846006840F080700A
:1004F000086000BF0C48006800F000700028F9D0C8
:100500000948406820F003000749486008464068F1
:1005100040F00200486000BF0348406800F00C0053
:100520000828F9D10CBD00000010024010B5144895
:10053000006840F00100124908600846406811490F
:1005400008400F494860084600680F4908400C49B8
:1005500008600846006820F480200860084640686B
:1005600020F4FE0048604FF41F0088600020C8623D
:10057000FFF77CFF4FF000600449086010BD0000E9
:10058000001002400000FFF8FFFFF6FE08ED00E05B
:100590001FB501214807FFF749FF00200290012005
:1005A00003900020009001906946FFF779FE6946AC
:1005B0001020FFF775FE01210020FFF75DFE0121ED
:1005C0001020FFF759FE1FBD00BF011EA0F1010062
:1005D000FBD1704708B501210420FFF737FF102039
:1005E0008DF803003020ADF8000003208DF80200E4
:1005F00069460248FFF78EFE08BD00000008014072
:10060000FFF7E8FFFFF7C4FF7BE000203D490860EB
:1006100014E03C48006800F0EBF884B22146082062
:10062000FFF758FE48F6A040FFF7CEFF4FF07E518F
:100630003448006800F06EF83249086032493148A9
:10064000006800F0F5F8E4D330482E49086014E063
:100650002C48006800F0CCF884B221460820FFF74F
:1006600039FE48F6A040FFF7AFFF4FF07E51254816
:10067000006800F08DF923490860002121480068D6
:1006800000F055F9E4D300202149086014E0204827
:10069000006800F0ADF884B221460820FFF72AFE7A
:1006A00048F6A040FFF790FF4FF07E5118480068D1
:1006B00000F030F81649086013491548006800F04A
:1006C000B7F8E4D311481249086014E010480068F4
:1006D00000F08EF884B221460820FFF70BFE48F6A2
:1006E000A040FFF771FF4FF07E510948006800F00D
:1006F0004FF90749086000210548006800F017F924
:10070000E4D382E70000002000007F4300007E4326
:100710000400002090EA010F48BF81F0004100F181
:100720003E81421A3CBF801A89184FEAD0524FF0DE
:100730007F4C1CEA410FA2EBD15318BF9CEA026F19
:1007400000F03B804FF0004C4CEA00204CEA0121C5
:1007500021FA03FC10EB0C0C1ED202F1FF325FEA0F
:100760001C2040EBC25038BF70471CF07F0F4FEA8F
:10077000400C18BFBCF17F4F38BF7047C3F1200356
:10078000994008BF20F00100BCF17F4F38BF70478F
:10079000A0F1C04000F0C6B84FEA3C00000A40EBB0
:1007A000C25028BF1CF0FF0F4FEA400CE6D018BF24
:1007B000BCF17F4F38BF7047EAE79CEA026F05D073
:1007C00010EA5C0F08BF00F00040704710B500F061
:1007D00063F800BF64FBBE3E401058BFC0F140400C
:1007E000491058BFC1F140418142EFF3008070478A
:1007F000C10DD1F19E0206DB4FEA002343F0004316
:1008000023FA02F07047004207D54FEA4001B1F1E8
:10081000FE4F02D24FF00000704710B500F03CF8D8
:1008200049922480002070476FEA20007047000042
:1008300050EA010C00F113801CF5000F58BFBCF505
:10084000000F01D48842704707D710F5000F58BF3A
:1008500011F5000F15D488427047894270471CF586
:10086000000F04D5BCF5000FF7D5814270474FF05B
:10087000807C1CEB400F38BF1CEB410F01D2814242
:10088000704710B500F008F8922449004FF000506E
:100890004FF08051FFF7A0BF0EF1020E2EF0030EB5
:1008A0005EF8044B244204D44FEA4102B2F17F4F78
:1008B00011D84FEA4003B3F17F4F0CD80ED14FEA65
:1008C000D07CB2F17F4F0CEB4C0C0CF1020C08BF4A
:1008D0004CEBD17C04E04FF0080C01E04FEAD17CF6
:1008E0000CEB4C0324FA03F404F00704B4F1040CF9
:1008F00006D20EEB840CBDE810404CF0010C6047B2
:10090000DFE80CF0070802024FF00040A0F580007D
:1009100010BD0846420018BFD2F1807288BF00F0B7
:10092000004010BDFF2141EAD050C005704751EA98
:10093000000C00F113801CF5000F58BFBCF5000F30
:1009400001D48142704707D711F5000F58BF10F549
:10095000000F15D481427047894270471CF5000F83
:1009600004D5BCF5000FF7D5884270474FF0807C66
:100970001CEB410F38BF1CEB400F01D2884270477F
:1009800080EA010081EA000180EA0100FFF779BFF7
:1009900090EA010F48BF81F000413FF5C2AE421A14
:1009A00004D882F00042A0EB020011444FEAD0527A
:1009B0004FF07F4C1CEA410FA2EBD15318BF9CEAC9
:1009C000026F4AD04FF0004C4CEA00204CEA012163
:1009D00021FA03FCB0EB0C0C0FD412F0FE0F36D052
:1009E0005FEA4C001DD5001240EBC25038BF704783
:1009F0001CF03F0F18BF70470BE0A2F101025FEA45
:100A00001C2040EBC25038BF70471CF07F0F18BF4E
:100A10007047C3F12003994014BF401E20F001002D
:100A2000704780084FEA122308BF7047B0FA80FC75
:100A3000A2EB0C02CCF1280C60FA0CF093EA122F16
:100A400004BF00EBC25070474FEAC3707047130AEF
:100A50005FEADC1008BF7047F6E79CEA026F04D03B
:100A600010EA5C0F08BF0020704710B5FFF714FFB5
:100A700040DFF63E81F00040704700009C0A00080D
:100A800000000020080000005C010008A40A000823
:100A90000800002060060000780100080000000047
:040AA0000000000052
:04000005080001BD31
:00000001FF
