:020000040800F2
:1000000068060020BD010008C5010008C7010008FE
:10001000C9010008CB010008CD0100080000000064
:10002000000000000000000000000000CF010008F8
:10003000D101000800000000D3010008D50100082C
:10004000D7010008D7010008D7010008D701000830
:10005000D7010008D7010008D7010008D701000820
:10006000D7010008D7010008D7010008D701000810
:10007000D7010008D7010008D7010008D701000800
:10008000D7010008D7010008D701000800000000D0
:10009000000000000000000000000000D701000880
:1000A000D7010008D7010008D7010008D7010008D0
:1000B000D7010008D7010008D7010008D7010008C0
:1000C000D7010008D7010008D7010008D7010008B0
:1000D000D7010008D7010008D7010008D7010008A0
:1000E000D7010008D7010008D70100080000000070
:1000F0000000000000000000000000000000000000
:1001000000000000000000000000000000000000EF
:100110000000000000000000D7010008D70100081F
:1001200000F002F800F03AF80AA090E8000C8244CF
:100130008344AAF10107DA4501D100F02FF8AFF2AC
:10014000090EBAE80F0013F0010F18BFFB1A43F0B5
:1001500001031847640D0000840D0000103A24BF0D
:1001600078C878C1FAD8520724BF30C830C144BF1C
:1001700004680C607047000000230024002500265E
:10018000103A28BF78C1FBD8520728BF30C148BFFA
:100190000B6070471FB51FBD10B510BD00F031F8E2
:1001A0001146FFF7F7FF00F05BFB00F04FF803B4D8
:1001B000FFF7F2FF03BC00F057F800000948804742
:1001C00009480047FEE7FEE7FEE7FEE7FEE7FEE739
:1001D000FEE7FEE7FEE7FEE704480549054A064B51
:1001E00070470000FD05000821010008680000209C
:1001F00068060020680200206802002070477047EF
:100200007047754600F02CF8AE4605006946534627
:1002100020F00700854618B020B5FFF7DDFFBDE8E8
:1002200020404FF000064FF000074FF000084FF05D
:10023000000B21F00701AC46ACE8C009ACE8C009EE
:10024000ACE8C009ACE8C0098D46704710B504465B
:10025000AFF300802046BDE81040FFF7A8BF0000C4
:10026000004870470800002001491820ABBEFEE797
:1002700026000200704721B1826842F001028260CC
:1002800003E0826822F00102826070470146C86C78
:1002900080B270470246002013680B400BB101206A
:1002A00000E000207047000030B502460020002327
:1002B00050680F4C20400D790C6844EA0524204317
:1002C000506090680B4C2040D1E902542C434D798A
:1002D00044EA450420439060D06A20F470000C7C0E
:1002E000641EE4B2234340EA0350D06230BD0000F4
:1002F000FFFEF0FFFDF7F1FFF0B504460D460020CC
:100300000021092D11DDE068A5F10A0606EB46077C
:10031000072606FA07F18843A5F10A0606EB46060A
:1003200003FA06F10843E0600CE0206905EB45079D
:10033000072606FA07F1884305EB450603FA06F19E
:1003400008432061072A0FDA606B561E06EB86070A
:100350001F2606FA07F18843561E06EB860605FAA5
:1003600006F10843606322E00D2A0FDA206BD61FE6
:1003700006EB86071F2606FA07F18843D61F06EB11
:10038000860605FA06F10843206310E0E06AA2F150
:100390000D0606EB86071F2606FA07F18843A2F131
:1003A0000D0606EB860605FA06F10843E062F0BD8D
:1003B00021B1826842F4A002826003E0826822F4E4
:1003C000A002826070472DE9F04102460025002618
:1003D000002000230024002791F803C00CF00F0533
:1003E00091F803C00CF0100CBCF1000F03D091F891
:1003F00002C04CEA050591F800C0BCF1000F31D0F5
:10040000146800202BE04FF0010C0CFA00F3B1F857
:1004100000C00CEA03069E4220D183004FF00F0C6F
:100420000CFA03F7BC4305FA03FC4CEA040491F808
:1004300003C0BCF1280F06D14FF0010C0CFA00FCF0
:10044000C2F814C00AE091F803C0BCF1480F05D10E
:100450004FF0010C0CFA00FCC2F810C0401C082838
:10046000D1D31460B1F800C0BCF1FF0F34DD546883
:1004700000202EE000F1080C4FF0010808FA0CF300
:10048000B1F800C00CEA03069E4221D183004FF070
:100490000F0C0CFA03F7BC4305FA03FC4CEA040406
:1004A00091F803C0BCF1280F05D100F1080C08FA3F
:1004B0000CF8C2F8148091F803C0BCF1480F07D1C2
:1004C00000F1080C4FF0010808FA0CF8C2F810808F
:1004D000401C0828CED35460BDE8F08129B1064AFB
:1004E000D2690243044BDA6104E0034AD2698243D1
:1004F000014BDA61704700000010024029B1064A42
:1005000092690243044B9A6104E0034A9269824370
:10051000014B9A61704700000010024029B1064A61
:10052000D2680243044BDA6004E0034AD268824393
:10053000014BDA60704700000010024010B500F077
:1005400001F810BD0CB50020019000902A48006809
:1005500040F480302849086000BF2748006800F454
:10056000003000900198401C0190009818B9019843
:10057000B0F5A06FF1D12048006800F4003010B150
:100580000120009001E0002000900098012831D166
:10059000194840681849486008464068486008465D
:1005A000406848600846406820F47C10486008466F
:1005B000406840F4981048600846006840F0807039
:1005C000086000BF0C48006800F000700028F9D0F7
:1005D0000948406820F00300074948600846406821
:1005E00040F00200486000BF0348406800F00C0083
:1005F0000828F9D10CBD00000010024010B51448C5
:10060000006840F00100124908600846406811493E
:1006100008400F494860084600680F4908400C49E7
:1006200008600846006820F480200860084640689A
:1006300020F4FE0048604FF41F0088600020C8626C
:10064000FFF77CFF4FF000600449086010BD000018
:10065000001002400000FFF8FFFFF6FE08ED00E08A
:1006600021B1028842F00102028004E002884FF6C4
:10067000FE731A400280704770B5002400220023E8
:10068000058C4FF6FF6635400584028C8388848B89
:100690004FF68F752C404FF6FC752C400D882C437F
:1006A0004FF6FF552A400D894FF6FF7606EA0525DD
:1006B0002A434D8806EA05252A43154DA84202D053
:1006C000144DA8421DD14FF2FF752A404D894FF6B7
:1006D000FF7606EA05252A434FF6FF352A408D8826
:1006E00006EA05252A434EF6FF752B404DF6FF75A9
:1006F0002B408D8906EA05152B43CD8906EA0515A1
:100700002B4383808483CD888587028470BD00005D
:10071000002C0140003401400A460021818B4FF635
:10072000F77319401143818370470000002202884B
:100730001D4B98420ED01D4B98420BD0B0F1804F0C
:1007400008D01B4B984205D01A4B984202D01A4B46
:10075000984204D14FF68F731A404B881A43174BB7
:10076000984207D0164B984204D04FF6FF431A40E8
:10077000CB881A4302808B8883850B8803850A4BBC
:1007800098420BD0094B984208D00E4B984205D0A6
:100790000D4B984202D00D4B984201D10B7A038643
:1007A0000123838270470000002C01400034014087
:1007B0000004004000080040000C00400010004011
:1007C0000014004000400140004401400048014046
:1007D00000B585B001214802FFF790FE01208DF899
:1007E0000500002003904FF460200290002000904C
:1007F00001208DF8100000208DF80400694604489F
:10080000FFF752FD01210248FFF735FD05B000BD9D
:100810000024014008B501210420FFF77FFE0020DD
:100820008DF803001020ADF8000069460A48FFF774
:10083000CAFD01210820FFF771FE18208DF8030082
:100840000120ADF8000003208DF80200694603483E
:10085000FFF7B9FD08BD000000080140000C014091
:1008600008B5FFF7D7FFFFF7B3FF00F06FF800F010
:1008700055F80D4908800846008800F0C7F904467D
:1008800000200A4B02460A490090204600F014F866
:100890000849086007E00748006800F097F984B24B
:1008A000204600F024F8F6E70000002000F015458F
:1008B00000E07B45040000202DE9F05F04460D4672
:1008C00016461F46DDF828803146284600F07EFA9D
:1008D00082464146384600F079FA8346514600F098
:1008E000B3F88146214600F0A5F9BDE8F09F1FB599
:1008F00004466020ADF800000120ADF802000020A1
:10090000ADF80800ADF8064069464FF08040FFF7AB
:10091000B3FE0821C806FFF7FFFE1FBD10B5052373
:10092000012200210848FFF7E7FC01210648FFF7F4
:100930003FFD00BF02210448FFF7ACFC0028F9D0BE
:100940000148FFF7A3FC10BD002401400EB50121B2
:100950000220FFF7C3FD0020ADF80600ADF802004D
:100960000A20ADF8000040F65F10ADF804006946BB
:100970000348FFF7DBFE01210148FFF771FE0EBDC2
:100980000004004090EA010F48BF81F0004100F1EF
:100990002482421A3CBF801A89184FEAD0524FF085
:1009A0007F4C1CEA410FA2EBD15318BF9CEA026FA7
:1009B00000F03B804FF0004C4CEA00204CEA012153
:1009C00021FA03FC10EB0C0C1ED202F1FF325FEA9D
:1009D0001C2040EBC25038BF70471CF07F0F4FEA1D
:1009E000400C18BFBCF17F4F38BF7047C3F12003E4
:1009F000994008BF20F00100BCF17F4F38BF70471D
:100A0000A0F1C04000F0DDB94FEA3C00000A40EB25
:100A1000C25028BF1CF0FF0F4FEA400CE6D018BFB1
:100A2000BCF17F4F38BF7047EAE79CEA026F05D000
:100A300010EA5C0F08BF00F00040704710B500F0EE
:100A40007AF900BF64FBBE3E4FF47F0C1CEAD01263
:100A50001EBF1CEAD11392EA0C0F93EA0C0F00F0B0
:100A6000858090EA010F48BF42F4807240F4000C88
:100A700041F400002CF07F4120F07F4000B581421E
:100A8000A2EB03020FF2081CACEB504EC0F10000C9
:100A90009EF800E04FEA4E0E00FB0EFC38BF490006
:100AA0004FEA2C1C02F5FA020CFB0EF34FEACE1EA5
:100AB0004FEA112C4FEAC1210EEB635E42EB22425A
:100AC0000EFB0CFC4FEA1C5300FB03114FEA112CE8
:100AD0004FEA01310EFB0CFC4FEADC4C00FB0C1121
:100AE000C14228BF09184CEB03335DF804EB10EB4F
:100AF000410143EBC250B2F57C0F38BF704729D596
:100B000012F0F00F1CBF00F1C04000F00040704731
:100B1000008182838485868788898B8C8D8E8F91D6
:100B20009293959697999A9C9D9FA0A2A3A5A7A8FA
:100B3000AAACAEB0B2B3B5B7B9BCBEC0C2C5C7C926
:100B4000CCCED1D4D7D9DCDFE2E6E9ECF0F3F7FA8A
:100B5000FE0000004FEA400C0CF1807CBCF17E4F9F
:100B600028BF7047B0F1C04000F02BB990EA010FE8
:100B70000CEAD11348BF42F48072624538BF634526
:100B800007D213F47F0F16D080EA010000F0004076
:100B9000704710B500F0CFF8097EFC3E00F005B8B4
:100BA00080EA010000F00040704780EA010000F098
:100BB000004000F006B912F47F0F04BF02487047EE
:100BC00080EA010000F0FDB80000C07FC10DD1F146
:100BD0009E0206DB4FEA002343F0004323FA02F0B3
:100BE0007047004207D54FEA4001B1F1FE4F02D2F3
:100BF0004FF00000704710B500F09DF84992248036
:100C0000002070476FEA200070470000B0FA80F3C0
:100C100010FA03F2C3F19D030AD0D90501EB1220AB
:100C2000530638BF704700F1010008BF20F00100F3
:100C3000704700004FF47F0C1CEAD0121EBF1CEA64
:100C4000D11392EA0C0F93EA0C0F00F0478090EA60
:100C5000010F48BF42F480724FF0004C4CEA002074
:100C60004CEA012102EB0302A0FB0113A2F50002F2
:100C7000002918BF43F001035B0028BF4FEA33038C
:100C800042EB22425FEA132C4CEBC2502EBFBCEB6E
:100C9000436FB2F57C0F70474FEA036CBCF1004F15
:100CA00008BF20F00100B2F57C0F38BF70470BD5AC
:100CB00082F0FF0212F5803FC8BF704700F1C040CC
:100CC000D8BF00F00040704700F5000C5FEA4C0C04
:100CD00048BF7047B0F1C04000F073B890EA010F10
:100CE0000CEAD11348BF42F48072624538BF6345B5
:100CF00004D280EA010000F00040704710B500F017
:100D00001AF800BF8900013E00F007B800F009B8EA
:100D10005FEA410C5FEA1C6C08D080EA010000F039
:100D200050B85FEA400C5FEA1C6CF6D14FF000400F
:100D3000A0F5800070470EF1020E2EF0030E5EF853
:100D4000044B244204D44FEA4102B2F17F4F11D840
:100D50004FEA4003B3F17F4F0CD80ED14FEAD07C5D
:100D6000B2F17F4F0CEB4C0C0CF1020C08BF4CEBBA
:100D7000D17C04E04FF0080C01E04FEAD17C0CEB91
:100D80004C0324FA03F404F00704B4F1040C06D273
:100D90000EEB840CBDE810404CF0010C6047DFE81E
:100DA0000CF0070802024FF00040A0F5800010BDD3
:100DB0000846420018BFD2F1807288BF00F00040A0
:100DC00010BDFF2141EAD050C005704790EA010FE5
:100DD00048BF81F000413FF5DCAD421A04D882F0F3
:100DE0000042A0EB020011444FEAD0524FF07F4C7A
:100DF0001CEA410FA2EBD15318BF9CEA026F4AD004
:100E00004FF0004C4CEA00204CEA012121FA03FC8F
:100E1000B0EB0C0C0FD412F0FE0F36D05FEA4C0092
:100E20001DD5001240EBC25038BF70471CF03F0F79
:100E300018BF70470BE0A2F101025FEA1C2040EBF3
:100E4000C25038BF70471CF07F0F18BF7047C3F106
:100E50002003994014BF401E20F001007047800815
:100E60004FEA122308BF7047B0FA80FCA2EB0C02D5
:100E7000CCF1280C60FA0CF093EA122F04BF00EBBF
:100E8000C25070474FEAC3707047130A5FEADC1024
:100E900008BF7047F6E79CEA026F04D010EA5C0FC7
:100EA00008BF0020704710B5FFF745FF40DFF63E52
:100EB00081F0004070470000D80E000800000020BC
:100EC000080000005C010008E00E00080800002097
:100ED000600600007801000800000000000000002B
:04000005080001BD31
:00000001FF
