:020000040800F2
:1000000068060020BD010008C5010008C7010008FE
:10001000C9010008CB010008CD0100080000000064
:10002000000000000000000000000000CF010008F8
:10003000D101000800000000D3010008D50100082C
:10004000D7010008D7010008D7010008D701000830
:10005000D7010008D7010008D7010008D701000820
:10006000D7010008D7010008D7010008D701000810
:10007000D7010008D7010008D7010008D701000800
:10008000D7010008D7010008D701000800000000D0
:10009000000000000000000000000000D701000880
:1000A000D7010008D7010008D7010008D7010008D0
:1000B000D7010008D7010008D7010008D7010008C0
:1000C000D7010008D7010008D7010008D7010008B0
:1000D000D7010008D7010008D7010008D7010008A0
:1000E000D7010008D7010008D70100080000000070
:1000F0000000000000000000000000000000000000
:1001000000000000000000000000000000000000EF
:100110000000000000000000D7010008D70100081F
:1001200000F002F800F03AF80AA090E8000C8244CF
:100130008344AAF10107DA4501D100F02FF8AFF2AC
:10014000090EBAE80F0013F0010F18BFFB1A43F0B5
:10015000010318475804000078040000103A24BF37
:1001600078C878C1FAD8520724BF30C830C144BF1C
:1001700004680C607047000000230024002500265E
:10018000103A28BF78C1FBD8520728BF30C148BFFA
:100190000B6070471FB51FBD10B510BD00F031F8E2
:1001A0001146FFF7F7FF00F0CDF900F04FF803B468
:1001B000FFF7F2FF03BC00F057F800000948804742
:1001C00009480047FEE7FEE7FEE7FEE7FEE7FEE739
:1001D000FEE7FEE7FEE7FEE704480549054A064B51
:1001E0007047000089040008210100086800002011
:1001F00068060020680200206802002070477047EF
:100200007047754600F02CF8AE4605006946534627
:1002100020F00700854618B020B5FFF7DDFFBDE8E8
:1002200020404FF000064FF000074FF000084FF05D
:10023000000B21F00701AC46ACE8C009ACE8C009EE
:10024000ACE8C009ACE8C0098D46704710B504465B
:10025000AFF300802046BDE81040FFF7A8BF0000C4
:10026000004870470400002001491820ABBEFEE79B
:100270002600020070472DE9F041024600250026C5
:10028000002000230024002791F803C00CF00F0584
:1002900091F803C00CF0100CBCF1000F03D091F8E2
:1002A00002C04CEA050591F800C0BCF1000F31D046
:1002B000146800202BE04FF0010C0CFA00F3B1F8A9
:1002C00000C00CEA03069E4220D183004FF00F0CC1
:1002D0000CFA03F7BC4305FA03FC4CEA040491F85A
:1002E00003C0BCF1280F06D14FF0010C0CFA00FC42
:1002F000C2F814C00AE091F803C0BCF1480F05D160
:100300004FF0010C0CFA00FCC2F810C0401C082889
:10031000D1D31460B1F800C0BCF1FF0F34DD5468D4
:1003200000202EE000F1080C4FF0010808FA0CF351
:10033000B1F800C00CEA03069E4221D183004FF0C1
:100340000F0C0CFA03F7BC4305FA03FC4CEA040457
:1003500091F803C0BCF1280F05D100F1080C08FA90
:100360000CF8C2F8148091F803C0BCF1480F07D113
:1003700000F1080C4FF0010808FA0CF8C2F81080E0
:10038000401C0828CED35460BDE8F081024600200E
:1003900093680B400BB1012000E0002070474161E1
:1003A000704701617047000029B1064A9269024313
:1003B000044B9A6104E0034A92698243014B9A61BB
:1003C000704700000010024010B500F001F810BDA9
:1003D0000CB50020019000902A48006840F480305D
:1003E0002849086000BF2748006800F400300090EA
:1003F0000198401C0190009818B90198B0F5A06FC1
:10040000F1D12048006800F4003010B101200090C4
:1004100001E0002000900098012831D1194840687F
:100420001849486008464068486008464068486087
:100430000846406820F47C1048600846406840F454
:10044000981048600846006840F08070086000BF5F
:100450000C48006800F000700028F9D00948406896
:1004600020F00300074948600846406840F0020059
:10047000486000BF0348406800F00C000828F9D12C
:100480000CBD00000010024010B51448006840F098
:1004900001001249086008464068114908400F49A8
:1004A0004860084600680F4908400C490860084643
:1004B000006820F4802008600846406820F4FE00B0
:1004C00048604FF41F0088600020C862FFF77CFF7F
:1004D0004FF000600449086010BD000000100240A9
:1004E0000000FFF8FFFFF6FE08ED00E000BF011E70
:1004F000A0F10100FBD1704708B501210820FFF7EA
:1005000053FF01211020FFF74FFF10208DF803004B
:100510000720ADF8000003208DF802006946074867
:10052000FFF7A9FE28208DF803004020ADF8000059
:1005300069460348FFF79FFE08BD0000000C01401C
:1005400000100140FFF7D8FF25E040211248FFF7D7
:100550001DFF1249088000BF40210F48FFF716FF1A
:100560000028F9D10D480088012814D10C480088D2
:1005700038B901200A49088007210A48FFF711FF0E
:1005800006E000200649088007210648FFF707FF1C
:100590000548FFF7ABFFD8E700100140000000203E
:1005A00002000020000C014080EE3600CC0500085F
:1005B00000000020040000005C010008D0050008D5
:1005C000040000206406000078010008000000001C
:04000005080001BD31
:00000001FF
