:020000040800F2
:1000000068060020BD010008C5010008C7010008FE
:10001000C9010008CB010008CD0100080000000064
:10002000000000000000000000000000CF010008F8
:10003000D101000800000000D3010008D50100082C
:10004000D7010008D7010008D7010008D701000830
:10005000D7010008D7010008D7010008D701000820
:10006000D7010008D7010008D7010008D701000810
:10007000D7010008D7010008D7010008D701000800
:10008000D7010008D7010008D701000800000000D0
:10009000000000000000000000000000D701000880
:1000A000D7010008D7010008D7010008D7010008D0
:1000B000D7010008D7010008D7010008D7010008C0
:1000C000D7010008D7010008D7010008D7010008B0
:1000D000D7010008D7010008D7010008D7010008A0
:1000E000D7010008D7010008D70100080000000070
:1000F0000000000000000000000000000000000000
:1001000000000000000000000000000000000000EF
:100110000000000000000000D7010008D70100081F
:1001200000F002F800F03AF80AA090E8000C8244CF
:100130008344AAF10107DA4501D100F02FF8AFF2AC
:10014000090EBAE80F0013F0010F18BFFB1A43F0B5
:10015000010318475406000074060000103A24BF3B
:1001600078C878C1FAD8520724BF30C830C144BF1C
:1001700004680C607047000000230024002500265E
:10018000103A28BF78C1FBD8520728BF30C148BFFA
:100190000B6070471FB51FBD10B510BD00F031F8E2
:1001A0001146FFF7F7FF00F0D3FA00F04FF803B461
:1001B000FFF7F2FF03BC00F057F800000948804742
:1001C00009480047FEE7FEE7FEE7FEE7FEE7FEE739
:1001D000FEE7FEE7FEE7FEE704480549054A064B51
:1001E000704700005D06000821010008680000203B
:1001F00068060020680200206802002070477047EF
:100200007047754600F02CF8AE4605006946534627
:1002100020F00700854618B020B5FFF7DDFFBDE8E8
:1002200020404FF000064FF000074FF000084FF05D
:10023000000B21F00701AC46ACE8C009ACE8C009EE
:10024000ACE8C009ACE8C0098D46704710B504465B
:10025000AFF300802046BDE81040FFF7A8BF0000C4
:10026000004870470400002001491820ABBEFEE79B
:1002700026000200704721B1826842F001028260CC
:1002800003E0826822F00102826070470146C86C78
:1002900080B270470246002013680B400BB101206A
:1002A00000E000207047000030B502460020002327
:1002B00050680F4C20400D790C6844EA0524204317
:1002C000506090680B4C2040D1E902542C434D798A
:1002D00044EA450420439060D06A20F470000C7C0E
:1002E000641EE4B2234340EA0350D06230BD0000F4
:1002F000FFFEF0FFFDF7F1FFF0B504460D460020CC
:100300000021092D11DDE068A5F10A0606EB46077C
:10031000072606FA07F18843A5F10A0606EB46060A
:1003200003FA06F10843E0600CE0206905EB45079D
:10033000072606FA07F1884305EB450603FA06F19E
:1003400008432061072A0FDA606B561E06EB86070A
:100350001F2606FA07F18843561E06EB860605FAA5
:1003600006F10843606322E00D2A0FDA206BD61FE6
:1003700006EB86071F2606FA07F18843D61F06EB11
:10038000860605FA06F10843206310E0E06AA2F150
:100390000D0606EB86071F2606FA07F18843A2F131
:1003A0000D0606EB860605FA06F10843E062F0BD8D
:1003B00021B1826842F4A002826003E0826822F4E4
:1003C000A00282607047000039B1084A1268012318
:1003D00083401A43054B1A6006E0044A1268012361
:1003E00083409A43014B1A6070470000007400403C
:1003F00030B5002200230A4C226840F6FE74844087
:10040000A243D1E900452C438D682C43CD6844EAD2
:10041000050303FA00F42243014C226030BD0000C2
:100420000074004008B500220092054A009200F1D5
:100430000802009B1A440092009A116008BD000057
:10044000007400402DE9F0410246002500260020FE
:1004500000230024002791F803C00CF00F0591F849
:1004600003C00CF0100CBCF1000F03D091F802C0D7
:100470004CEA050591F800C0BCF1000F31D01468BA
:1004800000202BE04FF0010C0CFA00F3B1F800C093
:100490000CEA03069E4220D183004FF00F0C0CFAA9
:1004A00003F7BC4305FA03FC4CEA040491F803C0CB
:1004B000BCF1280F06D14FF0010C0CFA00FCC2F879
:1004C00014C00AE091F803C0BCF1480F05D14FF009
:1004D000010C0CFA00FCC2F810C0401C0828D1D353
:1004E0001460B1F800C0BCF1FF0F34DD5468002087
:1004F0002EE000F1080C4FF0010808FA0CF3B1F8F7
:1005000000C00CEA03069E4221D183004FF00F0C7D
:100510000CFA03F7BC4305FA03FC4CEA040491F817
:1005200003C0BCF1280F05D100F1080C08FA0CF843
:10053000C2F8148091F803C0BCF1480F07D100F154
:10054000080C4FF0010808FA0CF8C2F81080401CA3
:100550000828CED35460BDE8F081000029B1064AD6
:10056000D2690243044BDA6104E0034AD269824350
:10057000014BDA61704700000010024029B1064AC1
:1005800092690243044B9A6104E0034A92698243F0
:10059000014B9A61704700000010024010B500F056
:1005A00001F810BD0CB50020019000902A480068A9
:1005B00040F480302849086000BF2748006800F4F4
:1005C000003000900198401C0190009818B90198E3
:1005D000B0F5A06FF1D12048006800F4003010B1F0
:1005E0000120009001E0002000900098012831D106
:1005F00019484068184948600846406848600846FD
:10060000406848600846406820F47C10486008460E
:10061000406840F4981048600846006840F08070D8
:10062000086000BF0C48006800F000700028F9D096
:100630000948406820F003000749486008464068C0
:1006400040F00200486000BF0348406800F00C0022
:100650000828F9D10CBD00000010024010B5144864
:10066000006840F0010012490860084640681149DE
:1006700008400F494860084600680F4908400C4987
:1006800008600846006820F480200860084640683A
:1006900020F4FE0048604FF41F0088600020C8620C
:1006A000FFF77CFF4FF000600449086010BD0000B8
:1006B000001002400000FFF8FFFFF6FE08ED00E02A
:1006C00000B585B001214802FFF758FF01208DF8E1
:1006D0000500002003904FF460200290002000905D
:1006E00001208DF8100000208DF8040069460448B0
:1006F000FFF7DAFD01210248FFF7BDFD05B000BD9F
:10070000002401401FB501214807FFF727FF002003
:100710000290012003900020009001906946FFF7AD
:1007200067FE01210020FFF74FFE1FBD08B5012124
:100730000420FFF723FF00208DF803001120ADF8FF
:10074000000069460148FFF77DFE08BD0008014032
:10075000FFF7ECFFFFF7B4FFFFF7D4FF08E000F06E
:100760000BF804490880084601880020FFF75AFE6C
:10077000F5E700000000002010B50523012200214C
:100780000848FFF7B9FD01210648FFF711FE00BF39
:1007900002210448FFF77EFD0028F9D00148FFF749
:1007A00075FD10BD00240140C807000800000020AE
:1007B000040000005C010008CC07000804000020D1
:0C07C00064060000780100080000000042
:04000005080001BD31
:00000001FF
