:020000040800F2
:1000000060060020A1010008A9010008AB0100085A
:10001000AD010008AF010008B101000800000000B8
:10002000000000000000000000000000B301000814
:10003000B501000800000000B7010008B901000880
:10004000BB010008BB010008BB010008BB010008A0
:10005000BB010008BB010008BB010008BB01000890
:10006000BB010008BB010008BB010008BB01000880
:10007000BB010008BB010008BB010008BB01000870
:10008000BB010008BB010008BB0100080000000024
:10009000000000000000000000000000BB0100089C
:1000A000BB010008BB010008BB010008BB01000840
:1000B000BB010008BB010008BB010008BB01000830
:1000C000BB010008BB010008BB010008BB01000820
:1000D000BB010008BB010008BB010008BB01000810
:1000E000BB010008BB010008BB01000800000000C4
:1000F0000000000000000000000000000000000000
:1001000000000000000000000000000000000000EF
:100110000000000000000000BB010008BB01000857
:1001200000F002F800F02CF80AA090E8000C8244DD
:100130008344AAF10107DA4501D100F021F8AFF2BA
:10014000090EBAE80F0013F0010F18BFFB1A43F0B5
:1001500001031847A8050000B8050000002300248B
:1001600000250026103A28BF78C1FBD8520728BFC7
:1001700030C148BF0B6070471FB51FBD10B510BD23
:1001800000F031F81146FFF7F7FF00F067FA00F0D2
:100190004FF803B4FFF7F2FF03BC00F057F800007C
:1001A0000948804709480047FEE7FEE7FEE7FEE70B
:1001B000FEE7FEE7FEE7FEE7FEE7FEE70448054947
:1001C000054A064B70470000FD04000821010008A5
:1001D0006000002060060020600200206002002015
:1001E000704770477047754600F02CF8AE46050022
:1001F0006946534620F00700854618B020B5FFF742
:10020000DDFFBDE820404FF000064FF000074FF043
:1002100000084FF0000B21F00701AC46ACE8C00924
:10022000ACE8C009ACE8C009ACE8C0098D4670472D
:1002300010B50446AFF300802046BDE81040FFF73C
:10024000A8BF0000004870470000002001491820A6
:10025000ABBEFEE72600020070472DE9F0410246E2
:1002600000250026002000230024002791F803C069
:100270000CF00F0591F803C00CF0100CBCF1000F4E
:1002800003D091F802C04CEA050591F800C0BCF11A
:10029000000F31D0146800202BE04FF0010C0CFA55
:1002A00000F3B1F800C00CEA03069E4220D183009F
:1002B0004FF00F0C0CFA03F7BC4305FA03FC4CEAB1
:1002C000040491F803C0BCF1280F06D14FF0010CD3
:1002D0000CFA00FCC2F814C00AE091F803C0BCF1AB
:1002E000480F05D14FF0010C0CFA00FCC2F810C009
:1002F000401C0828D1D31460B1F800C0BCF1FF0F36
:1003000034DD546800202EE000F1080C4FF00108A5
:1003100008FA0CF3B1F800C00CEA03069E4221D1A2
:1003200083004FF00F0C0CFA03F7BC4305FA03FCF3
:100330004CEA040491F803C0BCF1280F05D100F188
:10034000080C08FA0CF8C2F8148091F803C0BCF14C
:10035000480F07D100F1080C4FF0010808FA0CF81B
:10036000C2F81080401C0828CED35460BDE8F0814C
:100370000246002093680B400BB1012000E00020F2
:1003800070474161704701617047000070B50021FE
:1003900000230F22C47804B3154C246804F4E064ED
:1003A000C4F5E064210AC1F10403CA40447804FAA8
:1003B00003F184781440214309010E4C0678A155BD
:1003C000047804F01F050124AC4005786D11AD00E0
:1003D00005F1E025C5F8004109E0047804F01F05A7
:1003E0000124AC40044D0678761145F8264070BDD6
:1003F0000CED00E000E400E080E100E029B1064AF5
:10040000D2690243044BDA6104E0034AD2698243B1
:10041000014BDA61704700000010024029B1064A22
:1004200092690243044B9A6104E0034A9269824351
:10043000014B9A61704700000010024010B500F0B7
:1004400001F810BD0CB50020019000902A4800680A
:1004500040F480302849086000BF2748006800F455
:10046000003000900198401C0190009818B9019844
:10047000B0F5A06FF1D12048006800F4003010B151
:100480000120009001E0002000900098012831D167
:10049000194840681849486008464068486008465E
:1004A000406848600846406820F47C104860084670
:1004B000406840F4981048600846006840F080703A
:1004C000086000BF0C48006800F000700028F9D0F8
:1004D0000948406820F00300074948600846406822
:1004E00040F00200486000BF0348406800F00C0084
:1004F0000828F9D10CBD00000010024010B51448C6
:10050000006840F00100124908600846406811493F
:1005100008400F494860084600680F4908400C49E8
:1005200008600846006820F480200860084640689B
:1005300020F4FE0048604FF41F0088600020C8626D
:10054000FFF77CFF4FF000600449086010BD000019
:10055000001002400000FFF8FFFFF6FE08ED00E08B
:1005600021B1028842F00102028004E002884FF6C5
:10057000FE731A40028070471AB183890B4383814E
:1005800002E083898B438381704700000022028848
:100590001D4B98420ED01D4B98420BD0B0F1804FAE
:1005A00008D01B4B984205D01A4B984202D01A4BE8
:1005B000984204D14FF68F731A404B881A43174B59
:1005C000984207D0164B984204D04FF6FF431A408A
:1005D000CB881A4302808B8883850B8803850A4B5E
:1005E00098420BD0094B984208D00E4B984205D048
:1005F0000D4B984202D00D4B984201D10B7A0386E5
:100600000123838270470000002C01400034014028
:100610000004004000080040000C004000100040B2
:1006200000140040004001400044014000480140E7
:1006300008B501210820FFF7F1FE10208DF8030016
:100640000720ADF8000003208DF80200694602483B
:10065000FFF703FE08BD0000000C0140FFF7E8FFB4
:1006600000F004F800F036F800BFFEE71FB50121E6
:100670000220FFF7C3FE0120ADF80A000020ADF80C
:10068000060041F26F70ADF8080040F69F70ADF8BB
:10069000040000208DF80C0001A90D48FFF776FF3B
:1006A00001210B48FFF75CFF1D208DF800000120A1
:1006B0008DF8030000208DF801008DF80200012262
:1006C00011460348FFF758FF6846FFF75FFE1FBD5E
:1006D0000004004010B507210748FFF749FE044613
:1006E000012C04D107210448FFF74BFE03E007214A
:1006F0000148FFF748FE10BD000C01400C07000840
:0C07000000000020600600005C01000802
:04000005080001A14D
:00000001FF
